:020000040800F2
:10000000282C002001010008090100080B0100084C
:100010000D0100080F010008110100080000000098
:1000200000000000000000000000000013010008B4
:100030001501000800000000170100081901000860
:100040001B0100081B0100081B0100081B01000820
:100050001B0100081B0100081B0100085D220008AD
:10006000F12200086523000879240008FD1B000820
:100070003D1C00081B0100081B0100081B010008B3
:100080001B0100081B0100081B0100081B010008E0
:100090001B0100081B0100081B0100081B010008D0
:1000A0001B0100081B0100081B0100081B010008C0
:1000B0001B010008415D00081B0100081B0100082E
:1000C0001B0100081B0100081B0100081B010008A0
:1000D0001B0100089D6100081B0100081B010008AE
:1000E0001B0100081B0100081B010008DFF80CD0F1
:1000F00000F0F4FE00480047116D0008282C002095
:100100000648804706480047FEE7FEE7FEE7FEE7B1
:10011000FEE7FEE7FEE7FEE7FEE7FEE7B95B000865
:10012000ED0000082DE9F04F4FF0000C4FF00003F8
:1001300001EB1C6EBEF90250BEF900400EF5807E48
:10014000BEF90290BEF900800EF5807EBEF9027005
:10015000BEF900600EF5807EBEF902B0BEF900A0C7
:100160000EF5807ED044D944A8EB4A0AA9EB4B0B8C
:100170004FEAA4044FEAA50504EBA60405EBA70586
:10018000A4EB6606A5EB670704EBA80405EBA9053D
:10019000A4EB6808A5EB690906EBAB06A7EBAA0779
:1001A000A6EB6B0B07EB6A0A458020F8044B4780EF
:1001B00020F8046BA0F8029020F8048BA0F802A0AD
:1001C00020F804BB03F1010393FAA3FC402BAFD149
:1001D000A0EB82014FF0100312090FF2361000F16C
:1001E000000006B403EB430C6144A2F5803202EB3D
:1001F0008332B1F90250B1F90040A1EB0301B0F92B
:1002000002B0B0F900A000F10400A5EB040E0EFB53
:100210000BFC0AEB4B0E05FB0ACB04FB0ECAB1F933
:100220000250B1F90040A1EB0301B0F90290B0F91E
:10023000008000F10400A5EB040E0EFB09FC08EBA6
:10024000490E05FB08C904FB0EC8B1F90250B1F90B
:100250000040A1EB0301B0F90270B0F9006000F1B9
:100260000400A5EB040E0EFB07FC06EB470E05FB96
:1002700006C704FB0EC6B1F90250B1F9004001F106
:100280000001D044D944A8EB4A0AA9EB4B0B4FEA32
:10029000A4044FEAA50504EB264405EB2745A4EB8F
:1002A000E636A5EBE73704EB284405EB2945A4EB3C
:1002B000E838A5EBE93906EB2B46A7EB2A47A6EB76
:1002C000EB3B07EBEA3A4D800C8019444F800E80DF
:1002D0001944A1F80290A1F800801944A1F802A0E5
:1002E00021F804BBB2F5803283DA03EB430C61449E
:1002F000A2F101025FEA024E18BFA0EB0C007FF4EE
:1003000076AF06BC4FEA830392087FF46AAFBDE87C
:10031000F08F0040000000400000004000005DDD64
:10032000213BA3227E180000412D7EA5412D000017
:10033000412D00C000405DDD82E75DDD213B7EA5F3
:10034000412D004000000040000000400000AA2AAB
:1003500094126B39460649327C0CA8118E2349321F
:100360007C0CA3227E1821F77931AA2A9412A811B5
:100370008E235DDD213BA3227E180000412D95C612
:10038000B13F461A2B1E58EE3735BEB4C53EA811F4
:100390008E235DDD213B63A97138DF089A28B7CD34
:1003A000C53E7EA5412D0000412D00C0004063A93F
:1003B0002B1E21F77931BEB4C53EBEB47C0C58EE7D
:1003C000373561AC213B95C6BAF9BAE571383BA720
:1003D00037355DDD82E75DDD213B7EA5412D21F7CF
:1003E00066D756D53F3D3BA78E23A811C9CAB7CDC6
:1003F000C53E61AC7E18AA2AC1C295C6B13FBEB443
:100400007C0C0040000000400000004000001E3B4B
:10041000B504693E9201C83C2403EB356409C83C2D
:1004200024036B3946066C30060E1E3BB504EB35D3
:100430006409AA2A94126B39460649327C0CAE2410
:100440000917AF37D607882E8D0F7E1E5D1BEB3543
:100450006409AA2A941224188C1F1E34F10AB326A8
:100460009015A8118E2349327C0CA3227E18140B00
:1004700060276C30060E7E1E5D1B7104FB2A882EE1
:100480008D0F461A2B1EC7FD5A2E9D2C1211FE15DC
:10049000E72021F77931AA2A9412A8118E2387F038
:1004A0005334B2281314480D202602EAE536B32649
:1004B0009015DF089A289CE32B39AE2409177104A4
:1004C000FB2A5DDD213BA3227E180000412D4ED783
:1004D000C53C9320EF198FFB6C2F78D1153E7E1E03
:1004E0005D1B21F77931E2CB0F3F641CC61CB8F2CB
:1004F000683395C6B13F461A2B1E58EE373597C163
:10050000FB3F24188C1F02EAE536F0BCEC3FFE15D9
:10051000E720BAE57138A6B8853FD5133D2282E1C0
:10052000DB39BEB4C53EA8118E235DDD213B40B151
:10053000AF3D790FDA244DD9423C2EAE423C480DF6
:10054000202656D53F3D8EAB823A140B602778D1DA
:10055000153E63A97138DF089A28B7CDC53EB1A70B
:100560001236A906CE2915CA4F3F78A66833710402
:10057000FB2A95C6B13FBCA576303902212C38C381
:10058000EC3F7EA5412D0000412D00C00040BCA5E0
:10059000CE29C7FD5A2EF0BCEC3F78A620268FFB53
:1005A0006C2F09BAB13FB1A73D2257F976304DB74C
:1005B0004F3F63A92B1E21F77931BEB4C53E8EABE8
:1005C000EF19ECF474325EB2153E2EAE9015B8F20F
:1005D00068332DB03F3D40B1121187F053342EAE39
:1005E000423CBEB47C0C58EE373561AC213BA6B81A
:1005F000D6072BEC1236C8AADB39F0BC240302EA7A
:10060000E53663A9713897C16EFEDCE7B03734A8D0
:10061000E53695C6BAF9BAE571383BA73735E2CB6E
:100620000FF59CE32B3978A6683378D173F082E11B
:10063000DB39EDA579314ED7EDEB6DDF823A99A527
:100640006C2F5DDD82E75DDD213B7EA5412D9CE3C6
:100650003AE352DBB63B99A5FB2A02EA19DF4DD9F2
:10066000423CEDA59A2887F026DB4ED7C53C78A6FC
:10067000202621F766D756D53F3D3BA78E23C7FDE1
:10068000DFD363D3AF3D34A8E720710494D078D191
:10069000153E63A92B1E140B8CCD94CF723EC8AAB5
:1006A0005D1BA811C9CAB7CDC53E61AC7E18241820
:1006B00050C8E2CB0F3F2EAE90157E1E25C615CA40
:1006C0004F3F2DB09412AE244AC451C8853F5EB24C
:1006D0008D0FAA2AC1C295C6B13FBEB47C0C6C3046
:1006E0008EC1E2C4D43F4DB76409EB35B1C038C305
:1006F000EC3F09BA46061E3B2CC097C1FB3FF0BC3D
:10070000240330B505460020034600E05B1C9342FD
:1007100005D2EC5CC85C201A01D1002CF6D130BDAA
:10072000F0B480EA0102D40F4200B2EB410F02D2D2
:100730000246084611464A0042D0C30DDDB2C1F35D
:10074000C752AD1A202D35DAC1F3160141F400026B
:1007500004B15242C5F1200602FA06F12A411044C2
:10076000B3EBD05F23D0C4B1012DA0EBC35009DCA3
:10077000F0BC4FF0004202EAC352DBB200F50000C9
:1007800000F0CFBA400000F1807000EBC350A0F140
:10079000807040EAD170490009E0490841EAC0711F
:1007A000A0EBC35000F50000400800EBC350F0BCC4
:1007B00000F0AEBA6142012202EB4101001BF6E7F4
:1007C000F0BC704781F00041AAE780F00040A7E745
:1007D00080EA010210B502F00043400022D04A0036
:1007E0001FD0010E01EB1261C0F35600C2F3560296
:1007F00040F4000042F40002A0FB022000047F3914
:10080000140400D0401C50EA124001D44000491E9C
:10081000C2B20C0604EBD010401C4008802A02D063
:1008200003E0002010BD20F00100002900DA0020C4
:10083000184310BD30B480EA010202F0004530F0E8
:10084000004221F0004013D090B1C30DD40DC2F38B
:100850001601C0F31600E41A41F4000140F400024E
:100860007D34914201D3641C00E04900002C02DA7F
:1008700030BC002070474FF400000023914201D3A8
:10088000891A034340084FEA4101F7D151B191421F
:1008900002D14FF0004105E002D24FF0010101E02A
:1008A0006FF0010103EBC450284430BC00F030BAB3
:1008B0002DE9FE4F804681EA0300C00F0C460090F0
:1008C00021F0004123F00045B8EB0200A94105D218
:1008D0004046214690461C460B46024623F0004007
:1008E000104347D0270DC7F30A00C3F30A51029003
:1008F000401A019040286BDAC3F3130040F4801BC8
:100900000098924620B10023D2EB030A63EB0B0B55
:1009100001985946C0F14002504600F0C8F9064619
:100920000D4650465946019A00F0E0F910EB0800D8
:100930006141002487EA115284EAE7731A4340D0E8
:10094000009A62B3019A012A4FEA075215DC001B94
:1009500061EB02014FF0004202EA0752CDE900428A
:10096000001C41F5801132462B4600F017FA03B007
:10097000BDE8F08F40462146F9E7001B61EB02011C
:10098000001C41F5801300185B412018A2F50017E8
:1009900047EB030140EAD570B6196D4111E06D08CF
:1009A0004FEA360645EAC0754FEA0752001B61EB75
:1009B0000201001C41F5801149084FEA300000197E
:1009C000514132462B4603B0BDE8F04F00F0D7B995
:1009D0000098012240000023D0EB020263EBE07399
:1009E000009821464FEAE074B8EB000061EB040187
:1009F000E9E783F000435BE781F0004158E72DE928
:100A0000FE4F81EA030404F0004421F00041009409
:100A10004FF0000B23F0004350EA01045ED052EA8D
:100A200003045BD0C3F30A54C1F30A552C44A4F267
:100A3000F3340194A0FB0254C1F3130141F480117B
:100A4000C3F3130343F4801301FB024400FB034E82
:100A5000840A970A44EA815447EA8357A4FB07684B
:100A600002958D0A05FB07854FEA932C04FB0C5475
:100A70002705029D4FEA065847EA1637B5EB0805E9
:100A80006EEB070C870E920E47EA811742EA83123B
:100A9000A7FB0201B6EB0B0164EB00042B0D43EA4C
:100AA0000C335E1844EB1C50DA465146E7FB02015A
:100AB000C5F313044FEA0B3343EA14534FEA0432ED
:100AC000019C43EA0603A4F10C040294009CCDE9C6
:100AD00000B400F063F903B0BDE8F08F00200146D8
:100AE000F9E72DE9F04D81EA030404F0004B21F011
:100AF000004514464FF0000A23F0004150EA050279
:100B000020D054EA01021DD0C5F30A570246C5F3AE
:100B10001303C1F31300C1F30A5640F4801543F4E4
:100B20008013A7EB0608101BD64608F2FD3873EBBE
:100B3000050002D308F1010801E092185B41B8F109
:100B4000000F03DA00200146BDE8F08D00204FF4CD
:100B50008011064684460EE0171B73EB050705D38C
:100B6000121B63EB050306434CEA010C49084FEAEC
:100B7000300092185B4150EA0107EDD152EA0300C0
:100B800012D082EA040083EA0501084305D0101B55
:100B9000AB4106D20122002306E000224FF00043C1
:100BA00002E06FF0010253101AEB06004CEB085103
:100BB00010EB0A0041EB0B01BDE8F04D00F0DFB88F
:100BC000C10F80EAE0700844CA079623002100F0B4
:100BD000A8B896230022114600F0A3B80EB540F243
:100BE000334102910021CDE900110A460B4600F085
:100BF000D5F803B000BD20F00040C10DC0F31600D1
:100C000040F400007F2901DA00207047962903DCB8
:100C1000C1F19601C8407047963988407047C1F3CA
:100C20000A5210B5C1F3130140F2FF3341F48011B1
:100C30009A4201DA002010BD40F233439A42A2F2F8
:100C4000334203DC524200F041F810BD904010BD29
:100C500000F0004230F000400AD0C10D01F5607193
:100C6000C0F3160042EA0151C20840071143704721
:100C700000200146704701F0004330B421F00041EC
:100C800050EA010206D00A0DA2F56072C1F3130109
:100C9000002A02DC30BC00207047440F44EAC10443
:100CA000C100E01830BC00EBC25000F031B8202A7F
:100CB00004DB203A00FA02F1002070479140C2F1B3
:100CC000200320FA03F3194390407047202A04DBE5
:100CD000203A21FA02F00021704721FA02F3D040B5
:100CE000C2F120029140084319467047202A06DBD2
:100CF000CB17203A41FA02F043EAE07306E041FAEA
:100D000002F3D040C2F120029140084319467047D7
:100D10000029A8BF7047401C490008BF20F001000F
:100D2000704710B4B0FA80FC00FA0CF050EA0104ED
:100D300004BF10BC704749B1CCF1200421FA04F47F
:100D400011FA0CF118BF012121430843A3EB0C0158
:100D5000CB1D4FEA00614FEA102042BF002010BCBB
:100D6000704700EBC35010440029A4BF10BC70476B
:100D7000401C490008BF20F0010010BC704710B5AE
:100D8000141E73F1000408DA401C41F100019218AE
:100D90005B411A4301D120F0010010BD2DE9F04D57
:100DA00092469B4611B1B1FA81F202E0B0FA80F2AC
:100DB00020329046FFF77BFF04460F4640EA0A00C8
:100DC00041EA0B0153465A46084313D0114653EAF1
:100DD000010019D0C8F140025046FFF777FF0546E1
:100DE0000E46504659464246FFF761FF084305D07C
:100DF000012004E020463946BDE8F08D002005437F
:100E000046EAE0762C4337430A986305E40AA0EBF0
:100E100008000022FD0A44EA47540A3002D50020A7
:100E20000146E9E7010510196941DDE908450019A6
:100E30006941BDE8F04DA2E72DE9F04D00231A46C7
:100E40001B1A8A4103DB00200146BDE8F08DC1F387
:100E50000A52C1F3130141F480154FF0000BD10782
:100E600002D100186D41521E0027044640F2FF11C6
:100E7000384601EB620A3E468046024600204FF4A7
:100E80008011FFF723FFC2197141BB1846EB010027
:100E9000B4EB030C75EB000C04D3E41A65EB00050E
:100EA00017460E46241908F101006D41804634288A
:100EB000E3DDF91946EB0600091BA84103D24FF008
:100EC000FF32134601E0002213461BEB070046EBFE
:100ED0000A51BDE8F04DFFF752BF0000064C074D28
:100EE00006E0E06840F0010394E8070098471034FA
:100EF000AC42F6D3FFF7FEF8E06F00080070000880
:100F000070B521F0004303430CD0C1F30A5500240F
:100F1000D5EB040564EB0403D617AD1AB34102DB2D
:100F20000020014670BD201841EB025170BD0EB586
:100F3000C10F80EAE0700844CA07002140F2334341
:100F40008DE80E000A460B46FFF728FF03B000BDF0
:100F500070B5C1F30A5201F000450024C1F313013A
:100F600040F2FF3341F480119A4201DA002070BD53
:100F700040F233439A42A2F2334203DC5242FFF77B
:100F8000A5FE00E090402C43F1D0404270BD70B50A
:100F90008C1810F8015B15F0070301D110F8013B24
:100FA0002A1106D110F8012B03E010F8016B01F8AB
:100FB000016B5B1EF9D12B0705D40023521E0DD403
:100FC00001F8013BFAE710F8013BCB1A921C03E051
:100FD00013F8015B01F8015B521EF9D5A142D8D389
:100FE000002070BD21B1826842F00102826003E0FE
:100FF000826822F001028260704721B1826842F467
:101000008072826003E0826822F48072826070479E
:1010100021B1826842F48012826003E0826822F487
:10102000801282607047014600208A6802F0040244
:101030000AB1012000E000207047014600208A68C4
:1010400002F008020AB1012000E000207047000011
:1010500030B502460020002350680F4C20400D7927
:101060000C6844EA05242043506090680B4C2040F3
:10107000D1E902542C434D7944EA45042043906061
:10108000D06A20F470000C7C641EE4B2234340EA72
:101090000350D06230BD0000FFFEF0FFFDF7F1FF0E
:1010A000F0B504460D4600200021092D11DDE06851
:1010B000A5F10A0606EB4607072606FA07F188435C
:1010C000A5F10A0606EB460603FA06F10843E060BE
:1010D0000CE0206905EB4507072606FA07F188436F
:1010E00005EB450603FA06F108432061072A0FDAEB
:1010F000606B561E06EB86071F2606FA07F188432B
:10110000561E06EB860605FA06F10843606322E0E8
:101110000D2A0FDA206BD61F06EB86071F2606FA6C
:1011200007F18843D61F06EB860605FA06F1084349
:10113000206310E0E06AA2F10D0606EB86071F2689
:1011400006FA07F18843A2F10D0606EB860605FABA
:1011500006F10843E062F0BD816841F0080181605A
:101160007047816841F004018160704710B500202C
:101170000A49086001200A4908600AE000F016F8F0
:1011800008490948006800F097F805F033FA03F0C1
:10119000B9FC024800680028F0D010BD30030020E0
:1011A00034030020222222003803002033484079F3
:1011B0000A2190FBF1F032490860304840790A2159
:1011C00090FBF1F201FB12002E4908602B480079D8
:1011D0000A2190FBF1F02C490860284800790A2187
:1011E00090FBF1F201FB1200284908602348C07807
:1011F0000A2190FBF1F0264908602048C0780A21B6
:1012000090FBF1F201FB1200224908600220224902
:101210000860002021490860184800780A2190FBE6
:10122000F1F01F490860154800780A2190FBF1F29F
:1012300001FB12001B490860104840780A2190FB0E
:10124000F1F0194908600D4840780A2190FBF1F24D
:1012500001FB120015490860084880780A2190FBBC
:10126000F1F013490860054880780A2190FBF1F2FB
:1012700001FB12000F4908607047000025020020A2
:10128000F8020020FC020020F0020020F4020020FE
:101290000003002004030020080300200C030020AA
:1012A0001003002014030020180300201C0300205A
:1012B000200300202403002070B504460D46062CB0
:1012C0003AD2DFE804F039033A719BD285480068CE
:1012D000322818DA844801782A46012003F044F8BD
:1012E000824801782A46022003F03EF880480178BF
:1012F0002A46032003F038F87E4801782A46042065
:1013000003F032F813E07748006864280CDA784874
:1013100001782A46032003F027F8764801782A4608
:10132000042003F021F802E000206E4908606D48B7
:101330000068401C6B490860CEE06A4800683228AB
:1013400018DA694801782A46012003F00DF8674849
:1013500001782A46022003F007F8654801782A46FA
:10136000032003F001F8634801782A46042002F0C4
:10137000FBFF13E05B48006864280CDA5A480178E8
:101380002A46012002F0F0FF584801782A46022040
:1013900002F0EAFF02E0002052490860514800686C
:1013A000401C5049086097E04E480068322818DA1F
:1013B000514801782A46012002F0D6FF4F480178B3
:1013C0002A46022002F0D0FF4D4801782A46032029
:1013D00002F0CAFF4B4801782A46042002F0C4FFFD
:1013E00006E040480068642802DB00203D490860B0
:1013F0003C480068401C3B4908606DE03948006883
:10140000322818DA404801782A46012002F0ACFF61
:101410003E4801782A46022002F0A6FF3C480178A7
:101420002A46032002F0A0FF3A4801782A46042009
:1014300002F09AFF13E02B48006864280CDA344865
:1014400001782A46032002F08FFF324801782A46AD
:10145000042002F089FF02E00020224908602148B0
:101460000068401C1F49086036E01E4800683228AA
:1014700018DA254801782A46012002F075FF234832
:1014800001782A46022002F06FFF214801782A469F
:10149000032002F069FF1F4801782A46042002F069
:1014A00063FF13E00F48006864280CDA16480178DF
:1014B0002A46012002F058FF144801782A460220EB
:1014C00002F052FF02E0002006490860054800686B
:1014D000401C0449086000BF00BF00200E4908708E
:1014E00070BD00003C030020000300200403002026
:1014F000F0020020F4020020080300200C0300206A
:101500001003002014030020180300201C030020F7
:1015100020030020240300207402002010B5094895
:10152000006828B1084801210268432003F036FC16
:1015300001F04AF86FF07F410448006803F052FC64
:1015400010BD000068020020700200206C02002024
:101550002DE9F04F87B05448006828B15348022164
:101560000268432003F01AFC51480068FFF728FB8B
:101570008346FFF76DFB074600224E4BFFF7B1FA9B
:101580000546FFF778FB4C49086008460068FFF7FE
:101590005FFB074605F01EFC0022484BCDE9020127
:1015A000FFF786F90022464BCDE90401FFF727FA41
:1015B0000546FFF734FBC4B2424801684FF0804053
:1015C000FFF706F940490090FFF734F983463A489F
:1015D00001685846FFF7A4F80190FFF739FBCDE901
:1015E000020105F0F7FB05460022344BFFF760F9D6
:1015F0000022334BCDE90401FFF701FA0746FFF75C
:101600000EFB00F0FF092F4801684FF08140FFF703
:10161000DFF82D490090FFF70DF983462648016851
:101620005846FFF77DF80190FFF712FBCDE9020164
:1016300005F0D0FB05460022204BFFF739F907469D
:1016400000221F4BFFF7DBF9CDE90401FFF7E7FAB2
:1016500000F0FF0A1648006842F21071884203DD6C
:101660004FF0FF301949086011480068012802DA7C
:101670000120164908600E480068144909680844AA
:101680000B4908604AEA042040EA09401049086012
:1016900000F09AFF0E4801680E48006803F0A2FBB4
:1016A00007B0BDE8F08F0000680200207002002043
:1016B0004003002000408F404C0300200000F03F1A
:1016C00000C05F403002002000004040480300207E
:1016D000440300206C0200202DE9F04F87B05B48E6
:1016E000006828B15A4803210268432003F056FBE2
:1016F00058480068FFF764FA8346FFF7A9FA0746DF
:101700000022554BFFF7EDF90546FFF7B4FA5349B0
:10171000086008460068FFF79BFA074605F05AFB89
:1017200000224F4BCDE90201FFF7C2F800224D4BDA
:10173000CDE90401FFF763F90546FFF770FAC4B27B
:10174000494801684FF08040FFF742F84749009050
:10175000FFF770F88346414801685846FEF7E0FFFE
:101760000190FFF775FACDE9020105F033FB05465C
:1017700000223B4BFFF79CF800223A4BCDE90401D5
:10178000FFF73DF90746FFF74AFA00F0FF09364830
:1017900001684FF08140FFF71BF834490090FFF7D4
:1017A00049F883462D4801685846FEF7B9FF019075
:1017B000FFF74EFACDE9020105F00CFB05460022C9
:1017C000274BFFF775F807460022264BFFF717F95E
:1017D000CDE90401FFF723FA00F0FF0A1D48006875
:1017E00042F21071884203DD4FF0FF30204908605B
:1017F00018480068012802DA01201D4908601548D0
:1018000000681B4909680844124908604AEA042034
:1018100040EA09401749086000F0D6FE1548016803
:101820001548006803F0DEFA1448407900EB001018
:101830003C2190FBF1F0C5B20E4829460268012018
:1018400003F07AF907B0BDE8F08F000068020020CD
:10185000700200204003002000408F404C03002015
:101860000000F03F00C05F40300200200000404018
:1018700048030020440300206C02002025020020C1
:101880002DE9F04F89B06448006840B163480421F5
:101890000268432003F082FA012061490870614820
:1018A0000068FFF78DF960490690FEF791FF0790F9
:1018B000FFF7CEF9824600225C4BFFF712F907468C
:1018C000FFF7D9F95A49086008460068FFF7C0F9E0
:1018D000CDE9040105F07EFA0022564BCDE9060160
:1018E000FEF7E6FF07460022534BFFF788F88246D3
:1018F000FFF795F9C5B2514801684FF08040FEF7F7
:1019000067FF4F490190FEF795FF834648480168FD
:101910005846FEF705FF8246FFF79AF9074605F09D
:1019200059FA0022434BCDE90201FEF7C1FF002224
:10193000414BCDE90401FFF762F8CDE90601FFF75D
:101940006EF9C6B23D4801684FF08140FEF740FF96
:101950003B490190FEF76EFF0290354801680298FE
:10196000FEF7DEFE0390FFF773F9074605F032FA43
:101970000022304BCDE90401FEF79AFF8246002297
:101980002D4BFFF73CF8CDE90601FFF748F900F0D1
:10199000FF092448006842F21071884203DD4FF0CD
:1019A000FF30284908601F480068012802DA01203A
:1019B000244908601B4800682249096808441949FD
:1019C000086049EA052040EA06401F49086000F027
:1019D000FBFD1D4801681D48006803F003FA1C491F
:1019E0000988A1F5AF60002801DB014600E0414213
:1019F00009014FF4C86291FBF2F4022C00DD64008F
:101A0000102C00DD1024E1B2124A082003F0A3F8E4
:101A100009B0BDE8F08F00006802002070020020CD
:101A200075020020400300200000904100408F40DC
:101A30004C0300200000F03F00C05F403002002057
:101A40000000404048030020440300206C020020B6
:101A50008E1D0020980200202DE9F04F87B05948D4
:101A6000006840B1584805210268432003F096F908
:101A700001205649087003F081FB55480068FFF7C4
:101A80009FF854490590FEF7A3FE8346FFF7E0F860
:101A900007460022504BFFF724F80546FFF7EBF806
:101AA0004E49086008460068FFF7D2F8CDE9020108
:101AB00005F090F900224A4BCDE90401FEF7F8FE4B
:101AC00005460022474BFEF79AFF0746FFF7A7F8A7
:101AD000C4B2454801684FF08040FEF779FE834666
:101AE0004249FEF7A7FE80463C4801684046FEF7A3
:101AF00017FE0746FFF7ACF8CDE9000105F06AF9DB
:101B00000022374BCDE90201FEF7D2FE0546002246
:101B1000344BFEF774FFCDE90401FFF780F800F0C5
:101B2000FF09314801684FF08140FEF751FE2F490F
:101B30000090FEF77FFE0190284801680198FEF7AB
:101B4000EFFD8346FFF784F8CDE9020105F042F985
:101B500005460022224BFEF7ABFE0022214BCDE9C9
:101B60000401FEF74CFF0746FFF759F800F0FF0AA3
:101B70001748006842F21071884203DD4FF0FF30D1
:101B80001B49086012480068012802DA0120184940
:101B900008600F4800681649096808440C49086045
:101BA0004AEA042040EA09401249086000F00CFDAE
:101BB000104801681048006803F014F907B0BDE848
:101BC000F08F0000680200207002002075020020E3
:101BD000400300200000904100408F404C03002053
:101BE0000000F03F00C05F40300200200000404095
:101BF00048030020440300206C02002010B502209E
:101C000000F066F980B10948007850B100F0F6FEA6
:101C10000748008882B207490748FEF783FA00F0B8
:101C20005DFE022000F07EF810BD0000750200206D
:101C300038020020F41F0020F423002010B52020DB
:101C400000F030F928B1034800688047202000F0F8
:101C50005BF810BD1400002010B58CB004460121C3
:101C6000084601F0CFFA1A4800F076F819480190BA
:101C7000029410200390002004900590802006908C
:101C80004000079080000890002009904FF4805099
:101C90000A9000200B9001A90D4800F038F90C20A3
:101CA0008DF8000001208DF801008DF802008DF8FC
:101CB0000300684601F008F901220221044800F0FF
:101CC0001DF90121024800F03BF80CB010BD0000E6
:101CD0001C000240340000400149086070470000C9
:101CE0001400002010B504460021064800F028F832
:101CF0002146044800F029F90121024800F020F8AB
:101D000010BD00001C00024000F0805111B10349D9
:101D1000086001E002494860704700000404024086
:101D20000000024000F0805111B10349086001E059
:101D3000024948607047000004040240000002406D
:101D400021B1026842F00102026004E002684FF62D
:101D5000FE731A400260704701684FF6FE72114030
:101D600001600021016041608160C1604B4988428F
:101D700008D14A490839496841F00F01474A083AF1
:101D800051608AE045491431884208D143490839F5
:101D9000496841F0F001414A083A51607DE03F490D
:101DA0002831884208D13D490839496841F47061B9
:101DB0003A4A083A516070E038493C31884208D1CB
:101DC00036490839496841F47041344A083A51604B
:101DD00063E032495031884208D1304908394968B6
:101DE00041F470212D4A083A516056E02B49643184
:101DF000884208D129490839496841F47001274AC5
:101E0000083A516049E025497831884208D1234990
:101E10000839496841F07061204A083A51603CE055
:101E20001F49884206D1011F096841F00F01021FB6
:101E3000116032E01A491431884208D11849091F4B
:101E4000096841F0F001164A121F116025E014499B
:101E50002831884208D11249091F096841F470618C
:101E60000F4A121F116018E00D493C31884208D119
:101E70000B49091F096841F47041094A121F11609A
:101E80000BE007495031884207D10549091F09680D
:101E900041F47021024A121F11607047080002408D
:101EA0000804024001460020002201F0805313B1D3
:101EB000054B1A6801E0054B1A6802EA01030BB1F1
:101EC000012000E0002070470004024000000240B2
:101ED00001460020002201F0805313B1054B1A681F
:101EE00001E0054B1A6802EA01030BB1012000E092
:101EF0000020704700040240000002401AB103684D
:101F00000B43036002E003688B430360704710B526
:101F10000022026847F6F0739A430C6A8B682343E9
:101F20000C6923434C6923438C692343CC692343C5
:101F30004C6A23438C6A23431A430260CB68436094
:101F40000B6883604B68C36010BD4160704710B57B
:101F500000F0D8FE10BD70B5044600F081FFD0201F
:101F600000F05AFF00F0F4FE204600F055FF00F0AC
:101F7000EFFE00F075FFD12000F04EFF00F0E8FE0C
:101F800000F004FF0546002000F024FF00F086FF6B
:101F9000284670BD10B50620FFF7DDFF0446204639
:101FA000E21704EB12721211A4EB02122146E3179E
:101FB00004EB13731B1103EB830302EB4302434B4C
:101FC0001A700520FFF7C7FF04462046E21704EB0E
:101FD00012721211A4EB02122146E31704EB1373E1
:101FE0001B1103EB830302EB4302384B5A700420AE
:101FF000FFF7B1FF04462046E21704EB12721211FC
:10200000A4EB02122146E31704EB13731B1103EB3D
:10201000830302EB43022D4B9A700320FFF79BFFD3
:1020200004462046E21704EB12721211A4EB0212CE
:102030002146E31704EB13731B1103EB830302EB3D
:102040004302224B9A710220FFF785FF0446204687
:10205000E21704EB12721211A4EB02122146E317ED
:1020600004EB13731B1103EB830302EB4302174BC7
:10207000DA700120FFF76FFF04462046E21704EBF9
:1020800012721211A4EB02122146E31704EB137330
:102090001B1103EB830302EB43020C4B1A7100206C
:1020A000FFF759FF04462046E21704EB12721211A3
:1020B000A4EB02122146E31704EB13731B1103EB8D
:1020C000830302EB4302014B5A7110BD250200202D
:1020D00010B5434800780A2190FBF1F201FB120190
:1020E0003F4800780A2290FBF2F001EB0010C4B2E6
:1020F0002146062000F076F8394840780A2190FB06
:10210000F1F201FB1201364840780A2290FBF2F00E
:1021100001EB0010C4B22146052000F063F83048FE
:1021200080780A2190FBF1F201FB12012C488078A3
:102130000A2290FBF2F001EB0010C4B22146042009
:1021400000F050F8264880790A2190FBF1F201FB5B
:102150001201234880790A2290FBF2F001EB001073
:10216000C4B22146032000F03DF81D48C0780A2182
:1021700090FBF1F201FB12011948C0780A2290FB92
:10218000F2F001EB0010C4B22146022000F02AF860
:10219000134800790A2190FBF1F201FB120110486B
:1021A00000790A2290FBF2F001EB0010C4B2214644
:1021B000012000F017F80A4840790A2190FBF1F25B
:1021C00001FB1201064840790A2290FBF2F001EB74
:1021D0000010C4B22146002000F004F810BD000039
:1021E0002502002070B505460C4600F039FED020CF
:1021F00000F012FE00F0ACFD284600F00DFE00F0ED
:10220000A7FD204600F008FE00F0A2FD00F046FE0B
:1022100070BD00B5034603E04FF47A7000F006F895
:10222000181EA3F101018BB2F6D100BD00EBC00175
:10223000C9004FF0E0225161002191610521116137
:1022400000BF4FF0E021096901F480310029F8D086
:1022500004214FF0E02211617047000010B5022008
:1022600000F062F91B48007838BB0120194908705A
:102270001420FFF7CEFF0221174800F021FBE0B940
:102280000120164908701648006801280BD115482E
:102290000068401C1349086008460068052818DDDE
:1022A0000120086015E001200F4908600F48006810
:1022B0000A2803DD01200D4908600AE00B48006888
:1022C000401C0A49086008460068092801D101201D
:1022D000086010BD74020020000C0140750200204F
:1022E000340300203803002068020020640200202C
:1022F00010B5042000F018F91548007830BB012013
:102300001349087004F0FEFC0421124800F0D8FACA
:10231000E0B90120104908600020104908701048F9
:102320000068142803DC0E4800680A2803DC0B2030
:102330000B4908600AE00A480068401C0849086028
:1023400008460068102801D10B20086010BD00006D
:1023500074020020000C0140680200207502002079
:102360006402002010B5082000F0DEF83A4800783A
:10237000002870D101203849087004F0C3FC0821FE
:10238000364800F09DFA002865D1354800680128DC
:1023900045D134480068062840D2DFE800F03F030A
:1023A0000F1B27333048C078401C2F49C87008469F
:1023B000C078172801DD0020C8702FE02A48007976
:1023C000401C29490871084600793B2801DD00209E
:1023D000087123E024480078401C2349087008460F
:1023E0000078322801DD1420087017E01E4840787C
:1023F000401C1D494870084640780C2801DD01202A
:1024000048700BE018488078401C174988700846CF
:1024100080781F2801DD0120887000BF1BE00120AB
:102420001249086012490860124800681E2803DC3F
:1024300010480068142803DC15200E4908600AE0E3
:102440000C480068401C0B490860084600681A28C0
:1024500001D11520086010BD74020020000C01405D
:1024600034030020380300202502002068020020E9
:102470006C0200206402002010B5102000F054F817
:102480001F48006814282EDD1D4800681E282ADA1F
:102490001C480078002831D101201A49087004F046
:1024A00031FC1021184800F00BFA38BB17480068BF
:1024B000012809D11649086000201449086015490F
:1024C0004871FFF705FE19E013480068401C1249E7
:1024D000086008460068042801D101200860012036
:1024E0000E4908600AE00648006838B101200C492E
:1024F00008600020024908600A49087010BD000009
:102500006402002074020020000C0140340300200B
:1025100030030020250200206C0200202803002048
:102520006802002075020020014908607047000021
:1025300014040140002123498279002A3AD00A4636
:10254000126803689A430B461A600A1D12680368F2
:102550009A430B1D1A60027911440A6803681A43F2
:102560000A60184A0832126803689A43154B083308
:102570001A601A1D126803689A43124B0C331A60D2
:102580004279102A0ED11A1F126803681A430D4BA4
:1025900008331A601A1D126803681A43094B0C337A
:1025A0001A600DE00749427911440A6803681A432A
:1025B0000A6005E0027911440A6803689A430A60D8
:1025C000704700000004014010B5FFF7E3FC3348FA
:1025D00040790A2190FBF1F0314908602F48407999
:1025E0000A2190FBF1F201FB12002E4908602B48F2
:1025F00000790A2190FBF1F02B4908602748007907
:102600000A2190FBF1F201FB1200284908602348DF
:10261000C0780A2190FBF1F0254908601F48C07876
:102620000A2190FBF1F201FB12002249086002200E
:1026300021490860002021490860184800780A21D3
:1026400090FBF1F01E490860144800780A2190FBC5
:10265000F1F201FB12001B490860104840780A2182
:1026600090FBF1F0184908600C4840780A2190FB73
:10267000F1F201FB120015490860084880780A2130
:1026800090FBF1F012490860044880780A2190FB21
:10269000F1F201FB12000F49086010BD2502002075
:1026A000F8020020FC020020F0020020F4020020CA
:1026B0000003002004030020080300200C03002076
:1026C0001003002014030020180300201C03002026
:1026D000200300202403002030B500228B071C0FAC
:1026E0000F2303FA04F20B4B8C1053F8243093435E
:1026F000084C8D1044F8253023468C1053F82430B4
:102700008C07240F00FA04F42343024C8D1044F884
:10271000253030BD080001402DE9F041024600257A
:102720000026002000230024002791F803C00CF0AD
:102730000F0591F803C00CF0100CBCF1000F03D092
:1027400091F802C04CEA050591F800C0BCF1000FF9
:1027500031D0146800202BE04FF0010C0CFA00F38C
:10276000B1F800C00CEA03069E4220D183004FF06E
:102770000F0C0CFA03F7BC4305FA03FC4CEA040403
:1027800091F803C0BCF1280F06D14FF0010C0CFAF0
:1027900000FCC2F814C00AE091F803C0BCF1480F75
:1027A00005D14FF0010C0CFA00FCC2F810C0401C1F
:1027B0000828D1D31460B1F800C0BCF1FF0F34DD9C
:1027C000546800202EE000F1080C4FF0010808FAD0
:1027D0000CF3B1F800C00CEA03069E4221D183003D
:1027E0004FF00F0C0CFA03F7BC4305FA03FC4CEA5C
:1027F000040491F803C0BCF1280F05D100F1080CC6
:1028000008FA0CF8C2F8148091F803C0BCF1480F24
:1028100007D100F1080C4FF0010808FA0CF8C2F8D3
:102820001080401C0828CED35460BDE8F081000021
:10283000F0B50A46002300240021002500F00046E0
:10284000B6F1004F02D11D4EF16901E01B4E7168D7
:10285000C0F3034583B200F44016B6F5401F08D11B
:1028600021F07061154E766826F07066134F7E6019
:1028700012E000F48016B6F5801F06D1032606FA92
:1028800005F4A14341F0706106E0460D360103FAFC
:1028900006F6B14341F0706122B1460D360103FAEC
:1028A00006F6314300F00046B6F1004F02D1034E68
:1028B000F16101E0014E7160F0BD000000000140D7
:1028C0000246002093680B400BB1012000E000207D
:1028D00070470AB1016100E0416170472DE9F04F96
:1028E0008BB000246BE03A4830F824000FFA80F9EE
:1028F000374850F824004FEA204A4846FEF760F96E
:10290000804634480068FEF764F941460990FDF7B7
:102910005FFF07464FF08E41FDF78CFF054650469E
:10292000FEF74EF980462B480068FEF752F9414603
:102930000990FDF74DFF07464FF08E41FDF77AFFF6
:10294000064624480068FEF749F9CDE906013146FC
:102950003046FDF73DFF294602902846FDF738FF37
:1029600001900299FDF7DCFE0390FEF771F9CDE9C5
:10297000040104F07FFA0746DDE90623FEF7B1F80B
:10298000CDE90801FEF777F983465CB94FF08E4137
:102990005846FDF71DFF0746FEF72DF90E4941F891
:1029A00024000AE04FF08F415846FDF711FF07461B
:1029B000FEF721F9084941F82400601C84B205485B
:1029C0000068B4EB500F8ED30BB0BDE8F08F000061
:1029D000F423002038020020F425002010B500F078
:1029E00049FD00F023F803F0E9FD02F0C5F800F01E
:1029F00075FB03F0A7FCFFF7AAFA10BD00200AE060
:102A0000074931F81010A1F5AF610904054A42F8F1
:102A10002010411C88B2044909688842F0D37047ED
:102A20008E1D0020F41F0020380200201FB5012158
:102A3000082000F017FC0121084600F013FC0121DA
:102A40002948FFF7F5FE1E20ADF80C0048208DF850
:102A50000F0003208DF80E0003A92448FFF75CFE49
:102A60000121084600F0FEFB01210846FFF734FE75
:102A700002210120FFF730FE03210120FFF72CFE89
:102A800004210120FFF728FE1E20019000208DF870
:102A900008000C208DF8090001208DF80A0001A81B
:102AA000FFF748FD07208DF800000F208DF801008A
:102AB0008DF8020001208DF80300684600F004FA4A
:102AC00008208DF80000684600F0FEF909208DF816
:102AD0000000684600F0F8F90A208DF8000068460A
:102AE00000F0F2F91FBD000000023000000C0140B0
:102AF00010B50748006828B10648012102684C203B
:102B000002F04CF96FF07F4003F066FD10BD00004D
:102B1000680200207002002010B50648006828B145
:102B20000548022102684C2002F038F9034803F0FE
:102B300053FD10BD680200207002002088888800C4
:102B400010B50648006828B10548032102684C20EA
:102B500002F024F9034803F03FFD10BD6802002095
:102B6000700200201010100010B50648006828B14F
:102B70000548042102684C2002F010F900F0FEFC28
:102B800010BD000068020020700200202DE9F04F07
:102B900089B05148006828B15048052102684C208E
:102BA00002F0FCF84E480068FEF70AF84D4906901E
:102BB000FDF70EFE0790FEF74BF8824600224A4BC7
:102BC000FDF78FFF0746FEF756F804462046FEF74E
:102BD0003FF8CDE9040104F0FDF80022434BCDE9B4
:102BE0000601FDF765FE07460022414BFDF707FF92
:102BF0008246FEF714F8C5B23E4801684FF08040A7
:102C0000FDF7E6FD3C490190FDF714FE83462146A1
:102C1000FDF786FD8246FEF71BF8074604F0DAF85A
:102C20000022324BCDE90201FDF742FE0022304B7B
:102C3000CDE90401FDF7E3FECDE90601FDF7EFFF65
:102C4000C6B22C4801684FF08140FDF7C1FD2A490A
:102C50000190FDF7EFFD21460290FDF761FD039025
:102C6000FDF7F6FF074604F0B5F800221F4BCDE94B
:102C70000401FDF71DFE824600221D4BFDF7BFFE3D
:102C8000CDE90601FDF7CBFF00F0FF09144800680D
:102C900042F21071884203DD4FF0FF30174908609F
:102CA0000F480068012802DA0120144908600C4826
:102CB00000681249096808440949086049EA052082
:102CC00040EA06400E4908600846006803F084FCAC
:102CD00009B0BDE8F08F00006802002070020020FB
:102CE000E00200200000A04000408F400000F03FC4
:102CF00000C05F403002002000004040E40200209D
:102D0000E802002008B510480078E0B914208DF8DA
:102D1000030003208DF802000002ADF800006946B0
:102D20000A48FFF7F9FC012251020848FFF7D1FDDC
:102D3000012211020548FFF7CCFD03F0E3FF01205B
:102D40000149087000BF08BD2C020020000C0140A2
:102D500010B5012211020C48FFF7BBFD03F0D2FFB2
:102D60004FF400710848FFF7ABFD08B9012400E0FB
:102D7000002400224FF480710348FFF7AAFD03F0FE
:102D8000C1FF204610BD0000000C014070B50025B9
:102D9000002419E0012211020D48FFF79AFD03F00B
:102DA000B1FF4FF400710A48FFF78AFD10B180208F
:102DB0002041054300224FF480710548FFF789FD4B
:102DC00003F0A0FF601CC4B2082CE3DB284670BDF2
:102DD000000C014010B5044634B100224FF40071DC
:102DE0000C48FFF776FD04E0012251020948FFF785
:102DF00070FD012211020748FFF76BFD03F082FF0F
:102E000000224FF480710348FFF763FD03F07AFF5F
:102E100010BD0000000C014070B50546002419E00B
:102E20008020204100EA05024FF400710B48FFF7B3
:102E300050FD012211020948FFF74BFD03F062FF2C
:102E400000224FF480710548FFF743FD03F05AFF5D
:102E5000601CC4B2082CE3DB70BD0000000C014014
:102E600010B5012251020C48FFF733FD0122110277
:102E70000948FFF72EFD03F045FF00224FF40071D3
:102E80000548FFF726FD00224FF480710248FFF746
:102E900020FD03F037FF10BD000C014010B50022EB
:102EA0004FF400710748FFF714FD01221102054895
:102EB000FFF70FFD03F026FF012251020148FFF743
:102EC00008FD10BD000C014070B5002100230F2249
:102ED000C47804B3154C246804F4E064C4F5E064D9
:102EE000210AC1F10403CA40447804FA03F184784A
:102EF0001440214309010E4C0678A155047804F0D2
:102F00001F050124AC4005786D11AD0005F1E025E9
:102F1000C5F8004109E0047804F01F050124AC4025
:102F2000044D0678761145F8264070BD0CED00E0A2
:102F300000E400E080E100E002490143024A116040
:102F4000704700000000FA050CED00E010B500200D
:102F5000134908601348006808B3642419E0124854
:102F600000210268032001F06DFD0F484621026830
:102F7000072001F09AF90C48462102680B2001F065
:102F800094F903F037FB01F0BDFD0020054908600E
:102F9000641E002CE3D100200449087000BF10BD5E
:102FA0004802002068020020700200207402002005
:102FB00070B500240EE00021204600F0E6F8002560
:102FC00004E0002000F002F9681CC5B2802DF8DB97
:102FD000601CC4B2082CEEDB70BD000008B50121F6
:102FE000082000F03FF914208DF8030003208DF82D
:102FF00002004FF48070ADF8000069460A48FFF700
:103000008BFB4FF40070ADF8000069460648FFF7EF
:1030100083FB012211020448FFF75BFC01225102ED
:103020000148FFF756FC08BD000C014070B505468D
:10303000002415E08020204100EA05024FF40071D1
:103040000E48FFF746FC012211020C48FFF741FC35
:1030500000224FF480710948FFF73BFC601CC4B2AA
:10306000082CE7DB012211020448FFF732FC0022A2
:103070004FF480710148FFF72CFC70BD000C01403B
:1030800010B5012251020A48FFF723FC0122110268
:103090000748FFF71EFC00224FF400710448FFF7B9
:1030A00018FC00224FF480710148FFF712FC10BD9C
:1030B000000C014010B500224FF400710648FFF7E4
:1030C00008FC012211020448FFF703FC012251020F
:1030D0000148FFF7FEFB10BD000C014070B5002455
:1030E00006E0002500E06D1CB5F57A7FFBD3641C7B
:1030F000B4F57A7FF5D3FFF771FFAE2000F056F8F4
:10310000D52000F053F8802000F050F8A82000F0FF
:103110004DF83F2000F04AF8D32000F047F8002097
:1031200000F044F8402000F041F8A12000F03EF803
:10313000C82000F03BF8DA2000F038F8122000F048
:1031400035F8812000F032F8CF2000F02FF8D92098
:1031500000F02CF8F12000F029F8DB2000F026F830
:10316000302000F023F8A42000F020F8A62000F082
:103170001DF88D2000F01AF8142000F017F8AF2089
:1031800000F014F8FFF714FF70BD70B505460C464B
:1031900045F0B00000F00AF8102141EA141000F0E8
:1031A00005F804F00F0000F001F870BD10B50446FA
:1031B000FFF766FF7820FFF739FF0020FFF736FFA3
:1031C0002046FFF733FFFFF775FF10BD10B504462B
:1031D000FFF756FF7820FFF729FF4020FFF726FF73
:1031E0002046FFF723FFFFF765FF10BD01460020D3
:1031F000034A506820F44040084350607047000084
:103200000010024029B1064A52690243044B5A6138
:1032100004E0034A52698243014B5A61704700003F
:103220000010024029B1064AD2690243044BDA6118
:1032300004E0034AD2698243014BDA61704700001F
:103240000010024029B1064A12690243044B1A6178
:1032500004E0034A12698243014B1A61704700007F
:103260000010024029B1064A92690243044B9A6158
:1032700004E0034A92698243014B9A61704700005F
:103280000010024029B1064AD2680243044BDA60BA
:1032900004E0034AD2688243014BDA6070470000C1
:1032A000001002400F48006840F001000D4908601E
:1032B000084640680C4908400A49486008460068CA
:1032C0000A490840074908600846006820F4802041
:1032D00008600846406820F4FE0048604FF41F0074
:1032E00088607047001002400000FFF8FFFFF6FE04
:1032F00030B500210022002400232D4D6D6805F01B
:103300000C0121B1042905D0082923D105E0294D5C
:10331000056022E0274D05601FE0254D6D6805F42E
:103320007012234D6D6805F48034022505EB92423E
:103330001CB9214D554305600BE01D4D6D6805F42A
:1033400000351DB11C4D5543056002E0194D554334
:10335000056002E0174D056000BF00BF144D6D68A9
:1033600005F0F0010909154D6B5C0568DD4045600D
:103370000F4D6D6805F4E061090A104D6B5C4568FE
:10338000DD4085600A4D6D6805F46051C90A0B4D3A
:103390006B5C4568DD40C560054D6D6805F44041D6
:1033A000890B074D6B5CC568B5FBF3F5056130BD56
:1033B0000010024000127A0000093D0000000020C9
:1033C0001000002010B501460022002300204A1101
:1033D000012A02D1094C236806E0022A02D1074CD7
:1033E000236A01E0054C636A01F01F020124944046
:1033F0001C400CB1012000E0002010BD0010024074
:103400000248406800F00C007047000000100240C5
:1034100001460020034A506820F0F0000843506045
:1034200070470000001002401149096821F4803102
:103430000F4A11601146096821F480211160B0F52E
:10344000803F03D0B0F5802F0ED106E0084909680F
:1034500041F48031064A116007E00549096841F4EA
:10346000A021034A116000E000BF00BF70470000C8
:103470000010024010B5FFF715FF4FF48030FFF742
:10348000D3FF00F05FF80446012C1ED14FF4E01189
:10349000000400F03DF80020FFF7BAFFA00200F0A2
:1034A00019F8002000F022F8012000F02BF800BFEE
:1034B0003920FFF787FF0028FAD0022000F036F805
:1034C00000BFFFF79DFF0828FBD101217C20FFF7FB
:1034D000C9FE10BD01460020034A506820F4E06098
:1034E0000843506070470000001002400146002071
:1034F000034A506820F4605040EAC10050607047B1
:103500000010024001490866704700000000424276
:1035100002460020044B586820F47C1042EA010364
:103520001843014B586070470010024001460020CC
:10353000034A506820F003000843506070470000C1
:103540000010024038B5002000900024002500BF84
:103550003120FFF737FF05460098401C0090009887
:10356000B0F5A06F01D0002DF2D03120FFF72AFF77
:1035700008B1012400E00024204638BD10B55D48A4
:10358000007818B95C48007803F026F859480078AC
:10359000012805D158490978C1F1FF0003F01CF852
:1035A00054480078022804D153490978080203F0EE
:1035B00013F850480078032806D14F490978C1F123
:1035C000FF01080203F008F84A480078042804D1F3
:1035D00049490978080402F0FFFF464800780528A9
:1035E00006D145490978C1F1FF01080402F0F4FF52
:1035F00040480078062805D13F49097841EA012072
:1036000002F0EAFF3B480078072807D13A490978D9
:10361000C1F1FF0141EA012002F0DEFF35480078E8
:10362000082805D13449097841EA014002F0D4FF65
:1036300030480078092807D12F490978C1F1FF01E6
:1036400041EA014002F0C8FF2A4800780A2808D160
:10365000294909780902284A127841EA024002F011
:10366000BBFF244800780B280CD123490978C1F10D
:10367000FF010902204A1278C2F1FF0241EA02402A
:1036800002F0AAFF1B4800780C2809D11A490978D2
:1036900041EA0121184A127841EA024002F09CFFF7
:1036A000144800780D280DD113490978C1F1FF01A4
:1036B00041EA0121104A1278C2F1FF0241EA0240B8
:1036C00002F08AFF0C480078401C0B49087008463D
:1036D000007868B907480078401C06490870084619
:1036E00000780E2190FBF1F201FB120001490870F5
:1036F00010BD0000200200202102002007B582B08A
:10370000002001900298012801D100200190029828
:10371000022801D1042001900298032801D1092038
:1037200001900298042801D10D200190039841389E
:103730001A286BD2DFE810F01A006B00BC00F5000D
:1037400046019F016A00E80141028A02CB0214038C
:103750006A006A004D038E036A00CF0320045904F7
:1037600092046A006A00EB0434056D050198401C60
:10377000C0B200900321049A01F0B4F90198C01C72
:10378000C0B200900321049A01F0ACF90198401CEA
:10379000C0B200900421049A01F0A4F90198401CE1
:1037A000C0B200900521049A01F09CF90198401CD8
:1037B000C0B200900621049A01F094F90198801C8F
:1037C000C0B200900521049A01F08CF90198801C88
:1037D000C0B200900721049A01F084F90198C01C3E
:1037E000C0B200900621049A01F07CF90198C01C37
:1037F000C0B200900521049A01F074F90198C01C30
:10380000C0B200900421049A01F06CF91DE2019805
:10381000401CC0B200900321049A01F063F90198A2
:10382000801CC0B200900321049A01F05BF901985A
:10383000401CC0B200900421049A01F053F9019891
:10384000401CC0B200900521049A01F04BF9019888
:10385000401CC0B200900621049A01F043F901987F
:10386000801CC0B200900521049A01F03BF9019838
:10387000401CC0B200900721049A01F033F901986E
:10388000801CC0B200900721049A01F02BF9019826
:10389000C01CC0B200900621049A01F023F90198DF
:1038A000C01CC0B200900421049A01F01BF9ADE7DE
:1038B0000198801CC0B200900321049A01F012F913
:1038C0000198C01CC0B200900321049A01F00AF9CB
:1038D0000198401CC0B200900421049A01F002F942
:1038E0000198401CC0B200900521049A01F0FAF83A
:1038F0000198401CC0B200900621049A01F0F2F831
:103900000198801CC0B200900721049A01F0EAF8E7
:103910000198C01CC0B200900721049A01F0E2F89F
:1039200074E70198401CC0B200900321049A01F092
:10393000D9F80198801CC0B200900321049A01F0CC
:10394000D1F80198401CC0B200900421049A01F003
:10395000C9F80198401CC0B200900521049A01F0FA
:10396000C1F80198401CC0B200900621049A01F0F1
:10397000B9F80198C01CC0B200900521049A01F06A
:10398000B1F80198401CC0B200900721049A01F0E0
:10399000A9F80198801CC0B200900721049A01F098
:1039A000A1F80198C01CC0B200900621049A01F051
:1039B00099F80198C01CC0B200900421049A01F04B
:1039C00091F823E70198401CC0B200900321049AAB
:1039D00001F088F80198801CC0B200900321049A7D
:1039E00001F080F80198C01CC0B200900321049A35
:1039F00001F078F80198401CC0B200900421049AAC
:103A000001F070F80198401CC0B200900521049AA2
:103A100001F068F80198401CC0B200900621049A99
:103A200001F060F80198401CC0B200900721049A90
:103A300001F058F80198801CC0B200900521049A4A
:103A400001F050F80198801CC0B200900721049A40
:103A500001F048F80198C01CC0B200900721049AF8
:103A600001F040F80198C01CC0B200900521049AF2
:103A700001F038F8CAE60198401CC0B2009003215A
:103A8000049A01F02FF80198401CC0B20090042164
:103A9000049A01F027F80198401CC0B2009005215B
:103AA000049A01F01FF80198401CC0B20090062152
:103AB000049A01F017F80198401CC0B20090072149
:103AC000049A01F00FF80198801CC0B20090052103
:103AD000049A01F007F80198801CC0B200900721F9
:103AE000049A00F0FFFF0198C01CC0B200900721AB
:103AF000049A00F0F7FF0198C01CC0B200900521A5
:103B0000049A00F0EFFFCDE30198401CC0B2009092
:103B10000321049A00F0E6FF0198C01CC0B2009097
:103B20000321049A00F0DEFF0198401CC0B200900F
:103B30000421049A00F0D6FF0198401CC0B2009006
:103B40000521049A00F0CEFF0198401CC0B20090FD
:103B50000621049A00F0C6FF0198401CC0B20090F4
:103B60000721049A00F0BEFF0198801CC0B20090AB
:103B70000521049A00F0B6FF0198C01CC0B2009065
:103B80000721049A00F0AEFF0198C01CC0B200905B
:103B90000621049A00F0A6FF0198C01CC0B2009054
:103BA0000521049A00F09EFF0198C01CC0B200904D
:103BB0000421049A00F096FF74E30198401CC0B2FF
:103BC00000900321049A00F08DFF0198801CC0B280
:103BD00000900321049A00F085FF0198C01CC0B238
:103BE00000900321049A00F07DFF0198401CC0B2B0
:103BF00000900721049A00F075FF0198801CC0B264
:103C000000900521049A00F06DFF0198801CC0B25D
:103C100000900721049A00F065FF0198C01CC0B213
:103C200000900721049A00F05DFF0198801CC0B24B
:103C300000900621049A00F055FF0198801CC0B244
:103C400000900421049A00F04DFF2BE30198401CE2
:103C5000C0B200900421049A00F044FF0198801C37
:103C6000C0B200900321049A00F03CFF0198401C70
:103C7000C0B200900721049A00F034FF0198C01CE4
:103C8000C0B200900521049A00F02CFF0198801C1E
:103C9000C0B200900721049A00F024FF0198C01CD4
:103CA000C0B200900721049A00F01CFF0198C01CCC
:103CB000C0B200900621049A00F014FF0198C01CC5
:103CC000C0B200900421049A00F00CFFEAE20198CF
:103CD000401CC0B200900321049A00F003FF019839
:103CE000401CC0B200900421049A00F0FBFE019831
:103CF000401CC0B200900521049A00F0F3FE019828
:103D0000401CC0B200900621049A00F0EBFE01981E
:103D1000C01CC0B200900321049A00F0E3FE019899
:103D2000401CC0B200900721049A00F0DBFE01980D
:103D3000C01CC0B200900721049A00F0D3FE019885
:103D4000801CC0B200900621049A00F0CBFE0198BE
:103D5000801CC0B200900421049A00F0C3FEA1E2CE
:103D60000198401CC0B200900321049A00F0BAFEF2
:103D70000198401CC0B200900421049A00F0B2FEE9
:103D80000198401CC0B200900521049A00F0AAFEE0
:103D90000198401CC0B200900621049A00F0A2FED7
:103DA0000198C01CC0B200900321049A00F09AFE52
:103DB0000198401CC0B200900721049A00F092FEC6
:103DC0000198801CC0B200900321049A00F08AFE82
:103DD00068E20198401CC0B200900421049A00F0EF
:103DE00081FE0198401CC0B200900521049A00F0A9
:103DF00079FE0198401CC0B200900621049A00F0A0
:103E000071FE0198801CC0B200900721049A00F056
:103E100069FE0198C01CC0B200900421049A00F011
:103E200061FE0198C01CC0B200900521049A00F008
:103E300059FE0198C01CC0B200900621049A00F0FF
:103E400051FE0198801CC0B200900321049A00F03A
:103E500049FE27E20198401CC0B200900421049A58
:103E600000F040FE0198401CC0B200900521049A69
:103E700000F038FE0198401CC0B200900621049A60
:103E800000F030FE0198801CC0B200900721049A17
:103E900000F028FE0198801CC0B200900521049A11
:103EA00000F020FE0198401CC0B200900721049A47
:103EB00000F018FE0198C01CC0B200900621049AC0
:103EC00000F010FE0198401CC0B200900321049A3B
:103ED00000F008FEE6E10198401CC0B20090042109
:103EE000049A00F0FFFD0198401CC0B2009005212B
:103EF000049A00F0F7FD0198401CC0B20090062122
:103F0000049A00F0EFFD0198801CC0B200900721D8
:103F1000049A00F0E7FD0198801CC0B200900521D2
:103F2000049A00F0DFFD0198401CC0B20090072108
:103F3000049A00F0D7FD0198C01CC0B20090062181
:103F4000049A00F0CFFD0198401CC0B200900321FC
:103F5000049A00F0C7FD0198801CC0B200900421B3
:103F6000049A00F0BFFD0198C01CC0B2009003216C
:103F7000049A00F0B7FD95E10198C01CC0B2009012
:103F80000421049A00F0AEFD0198401CC0B20090DC
:103F90000621049A00F0A6FD0198801CC0B2009092
:103FA0000721049A00F09EFD0198801CC0B2009089
:103FB0000521049A00F096FD0198C01CC0B2009043
:103FC0000721049A00F08EFD0198401CC0B20090B9
:103FD0000321049A00F086FD0198801CC0B2009075
:103FE0000321049A00F07EFD5CE10198801CC0B2C0
:103FF00000900721049A00F075FD0198801CC0B262
:1040000000900521049A00F06DFD0198401CC0B29B
:1040100000900721049A00F065FD0198801CC0B251
:1040200000900621049A00F05DFD0198801CC0B24A
:1040300000900321049A00F055FD0198801CC0B245
:1040400000900421049A00F04DFD0198C01CC0B2FC
:1040500000900721049A00F045FD23E10198401CDF
:10406000C0B200900421049A00F03CFD0198401C6D
:10407000C0B200900521049A00F034FD0198401C64
:10408000C0B200900621049A00F02CFD0198401C5B
:10409000C0B200900721049A00F024FD0198801C12
:1040A000C0B200900321049A00F01CFD0198C01CCE
:1040B000C0B200900521049A00F014FD0198C01CC4
:1040C000C0B200900621049A00F00CFD0198C01CBB
:1040D000C0B200900421049A00F004FD0198C01CB5
:1040E000C0B200900721049A00F0FCFC0198C01CAB
:1040F000C0B200900321049A00F0F4FC0198401C27
:10410000C0B200900321049A00F0ECFCCAE00198D0
:10411000401CC0B200900421049A00F0E3FC019816
:10412000801CC0B200900521049A00F0DBFC0198CD
:10413000401CC0B200900621049A00F0D3FC019804
:10414000401CC0B200900321049A00F0CBFC0198FF
:10415000C01CC0B200900621049A00F0C3FC019874
:10416000401CC0B200900721049A00F0BBFC0198EB
:10417000C01CC0B200900721049A00F0B3FC019863
:10418000C01CC0B200900321049A00F0ABFC01985F
:10419000C01CC0B200900421049A00F0A3FC81E08E
:1041A0000198801CC0B200900421049A00F09AFC8F
:1041B0000198801CC0B200900521049A00F092FC86
:1041C0000198401CC0B200900621049A00F08AFCBD
:1041D0000198801CC0B200900321049A00F082FC78
:1041E0000198C01CC0B200900621049A00F07AFC2D
:1041F0000198401CC0B200900721049A00F072FCA4
:104200000198C01CC0B200900721049A00F06AFC1B
:1042100048E00198401CC0B200900321049A00F0CD
:1042200061FC0198801CC0B200900321049A00F048
:1042300059FC0198C01CC0B200900321049A00F000
:1042400051FC0198401CC0B200900421049A00F077
:1042500049FC0198401CC0B200900721049A00F06C
:1042600041FC0198801CC0B200900521049A00F026
:1042700039FC0198801CC0B200900721049A00F01C
:1042800031FC0198C01CC0B200900721049A00F0D4
:1042900029FC0198C01CC0B200900621049A00F0CD
:1042A00021FC00BF00BF05B000BD70B504460D463F
:1042B0001646462D36D1611CC8B23246032100F0A5
:1042C00011FC611CC8B23246042100F00BFC611CD9
:1042D000C8B23246052100F005FC611CC8B2324666
:1042E000062100F0FFFB611CC8B23246072100F036
:1042F000F9FBA11CC8B23246052100F0F3FBA11C5A
:10430000C8B23246072100F0EDFBE11CC8B23246CC
:10431000072100F0E7FBE11CC8B23246052100F09E
:10432000E1FB00BF00BF70BDF0B506460D46174665
:10433000012405E0E1B23A46304600F0D3FB641CAC
:10434000AC42F7DDF0BDF0B507460D461646012438
:1043500007E0601E56F82020E1B2384600F0C2FBAC
:10436000641CAC42F5DDF0BD07B582B000200190C1
:104370000298012801D1002001900298022801D161
:10438000042001900298032801D10920019002988D
:10439000042801D10D20019003980A2866D2DFE895
:1043A00000F005668FEFEDECEBEAE9E80198401CC0
:1043B000C0B200900321049A00F094FB0198801C85
:1043C000C0B200900321049A00F08CFB0198C01C3D
:1043D000C0B200900321049A00F084FB0198401CB5
:1043E000C0B200900421049A00F07CFB0198401CAC
:1043F000C0B200900521049A00F074FB0198401CA3
:10440000C0B200900621049A00F06CFB0198401C99
:10441000C0B200900721049A00F064FB0198801C50
:10442000C0B200900721049A00F05CFB0198C01C08
:10443000C0B200900721049A00F054FB0198C01C00
:10444000C0B200900621049A00F04CFB0198C01CF9
:10445000C0B200900521049A00F044FB0198C01CF2
:10446000C0B200900421049A00F03CFBE7E20198FE
:10447000801CC0B200900321049A00F033FB019825
:10448000801CC0B200900421049A00F02BFB01981C
:10449000801CC0B200900521049A00F023FB019813
:1044A000801CC0B200900621049A00F01BFB01980A
:1044B000801CC0B200900721049A00F013FBBEE2FA
:1044C0000198401CC0B200900321049A00F00AFB3E
:1044D0000198801CC0B200900321049A00F002FBF6
:1044E0000198C01CC0B200900321049A00F0FAFAAF
:1044F0000198401CC0B200900421049A00F0F2FA26
:104500000198401CC0B200900521049A00F0EAFA1C
:104510000198401CC0B200900721049A00F0E2FA12
:104520000198801CC0B200900521049A00F0DAFACC
:104530000198801CC0B200900721049A00F0D2FAC2
:104540000198C01CC0B200900721049A00F0CAFA7A
:104550000198C01CC0B200900621049A00F0C2FA73
:104560000198C01CC0B200900521049A00F0BAFA6C
:1045700065E203E299E15FE1FDE0A3E059E0FFE7D6
:104580000198401CC0B200900321049A00F0AAFADE
:104590000198801CC0B200900321049A00F0A2FA96
:1045A0000198C01CC0B200900321049A00F09AFA4E
:1045B0000198401CC0B200900521049A00F092FAC4
:1045C0000198401CC0B200900721049A00F08AFABA
:1045D0000198801CC0B200900521049A00F082FA74
:1045E0000198801CC0B200900721049A00F07AFA6A
:1045F0000198C01CC0B200900721049A00F072FA22
:104600000198C01CC0B200900621049A00F06AFA1A
:104610000198C01CC0B200900521049A00F062FA13
:104620000198C01CC0B200900421049A00F05AFA0C
:1046300005E20198C01CC0B200900321049A00F06A
:1046400051FA0198401CC0B200900521049A00F074
:1046500049FA0198401CC0B200900621049A00F06B
:1046600041FA0198401CC0B200900721049A00F062
:1046700039FA0198801CC0B200900521049A00F01C
:1046800031FA0198C01CC0B200900721049A00F0D2
:1046900029FA0198C01CC0B200900621049A00F0CB
:1046A00021FA0198C01CC0B200900521049A00F0C4
:1046B00019FA0198C01CC0B200900421049A00F0BD
:1046C00011FABCE10198401CC0B200900321049A89
:1046D00000F008FA0198801CC0B200900321049AEF
:1046E00000F000FA0198C01CC0B200900321049AA7
:1046F00000F0F8F90198401CC0B200900521049A1E
:1047000000F0F0F90198401CC0B200900621049A14
:1047100000F0E8F90198401CC0B200900721049A0B
:1047200000F0E0F90198801CC0B200900521049AC5
:1047300000F0D8F90198801CC0B200900721049ABB
:1047400000F0D0F90198C01CC0B200900721049A73
:1047500000F0C8F90198C01CC0B200900521049A6D
:1047600000F0C0F90198C01CC0B200900421049A66
:1047700000F0B8F963E10198401CC0B20090032139
:10478000049A00F0AFF90198801CC0B20090032198
:10479000049A00F0A7F90198C01CC0B20090032150
:1047A000049A00F09FF90198401CC0B200900421C7
:1047B000049A00F097F90198401CC0B200900521BE
:1047C000049A00F08FF90198401CC0B200900621B5
:1047D000049A00F087F90198401CC0B200900721AC
:1047E000049A00F07FF90198801CC0B20090052166
:1047F000049A00F077F90198801CC0B2009007215C
:10480000049A00F06FF90198C01CC0B20090072113
:10481000049A00F067F90198C01CC0B2009005210D
:10482000049A00F05FF90198C01CC0B20090042106
:10483000049A00F057F902E10198C01CC0B2009040
:104840000321049A00F04EF90198401CC0B2009078
:104850000721049A00F046F90198801CC0B200902C
:104860000721049A00F03EF90198C01CC0B20090E4
:104870000721049A00F036F90198C01CC0B20090DC
:104880000621049A00F02EF90198C01CC0B20090D5
:104890000521049A00F026F90198C01CC0B20090CE
:1048A0000421049A00F01EF9C9E00198401CC0B22E
:1048B00000900321049A00F015F90198801CC0B201
:1048C00000900321049A00F00DF90198C01CC0B2B9
:1048D00000900321049A00F005F90198401CC0B231
:1048E00000900421049A00F0FDF80198401CC0B229
:1048F00000900521049A00F0F5F80198401CC0B220
:1049000000900621049A00F0EDF80198401CC0B216
:1049100000900721049A00F0E5F80198801CC0B2CD
:1049200000900521049A00F0DDF80198801CC0B2C7
:1049300000900721049A00F0D5F80198C01CC0B27D
:1049400000900721049A00F0CDF80198C01CC0B275
:1049500000900621049A00F0C5F80198C01CC0B26E
:1049600000900521049A00F0BDF80198C01CC0B267
:1049700000900421049A00F0B5F860E00198401C12
:10498000C0B200900321049A00F0ACF80198801C9A
:10499000C0B200900321049A00F0A4F80198C01C52
:1049A000C0B200900321049A00F09CF80198401CCA
:1049B000C0B200900521049A00F094F80198401CC0
:1049C000C0B200900621049A00F08CF80198401CB7
:1049D000C0B200900721049A00F084F80198801C6E
:1049E000C0B200900521049A00F07CF80198801C68
:1049F000C0B200900721049A00F074F80198C01C1E
:104A0000C0B200900721049A00F06CF80198C01C15
:104A1000C0B200900621049A00F064F80198C01C0E
:104A2000C0B200900521049A00F05CF80198C01C07
:104A3000C0B200900421049A00F054F800BF00BFF7
:104A400005B000BD70B504460D461646002D47D191
:104A5000611CC8B23246032100F044F8A11CC8B260
:104A60003246032100F03EF8E11CC8B23246032171
:104A700000F038F8611CC8B23246042100F032F868
:104A8000611CC8B23246052100F02CF8611CC8B286
:104A90003246062100F026F8611CC8B232460721D2
:104AA00000F020F8A11CC8B23246072100F01AF825
:104AB000E11CC8B23246072100F014F8E11CC8B26C
:104AC0003246062100F00EF8E11CC8B2324605213C
:104AD00000F008F8E11CC8B23246042100F002F8E8
:104AE00070BD000010B54B1E044C04EB8314431E34
:104AF00054F82330024C44F8232010BD200000203D
:104B00005803002010B500200EE0002109E000222B
:104B1000074B03EB801353F82130064C44F8232055
:104B2000491C1029F3DB401C0828EEDB10BD0000F7
:104B30002000002058030020F0B505460E46174619
:104B4000012405E0E0B23A462946FFF7CBFF641C9A
:104B5000B442F7DDF0BDF0B505460E461746012418
:104B600007E0611E57F82120E0B22946FFF7BAFF9F
:104B7000641CB442F5DDF0BD00B593B00121042002
:104B8000FEF770FB01214802FEF76CFB012108468D
:104B9000FEF738FB0220ADF8480003208DF84A00EC
:104BA00000208DF84B0012A93E48FDF7B5FD00200E
:104BB0000D908DF838008DF839004FF400300F90CB
:104BC0000020109001208DF844000DA93648FCF714
:104BD0003FFA4FF40040FEF709FB00230122114683
:104BE0003148FCF75DFA01212F48FCF706FA012154
:104BF0002D48FCF7F7F92C48FCF7AEFA00BF2A481D
:104C0000FCF71BFA0028FAD12748FCF7AAFA00BFE4
:104C10002548FCF708FA0028FAD101212248FCF7C0
:104C2000F7F92248FDF798F81F484C3002902048C9
:104C30000390002004904FF48070059000200690AF
:104C400080200790400008908000099020200A9062
:104C500000020B9000200C9002A91448FDF757F9B0
:104C6000012202211148FDF749F94FF4A060FEF737
:104C700063F90B208DF8040000208DF805008DF8F5
:104C8000060001208DF8070001A8FEF71DF901219B
:104C90000648FDF755F84721632000F0BDFF13B02B
:104CA00000BD00000008014000240140080002404F
:104CB0008E1D002010B500F001F810BD0CB50020CD
:104CC000019000903348006840F48030314908601A
:104CD00000BF3048006800F4003000900198401C8C
:104CE0000190009818B90198B0F5A06FF1D129484A
:104CF000006800F4003010B10120009001E00020B5
:104D000000900098012843D12348006840F010002B
:104D1000214908600846006820F003000860084642
:104D2000006840F0020008601A484068194948606D
:104D30000846406848600846406840F48060486023
:104D40000846406820F47C1048600846406840F4FB
:104D5000E81048600846006840F08070086000BFB6
:104D60000C48006800F000700028F9D0094840683D
:104D700020F00300074948600846406840F0020000
:104D8000486000BF0348406800F00C000828F9D1D3
:104D90000CBD000000100240002002402DE9F0414F
:104DA00004460D461746642611E03A462146022085
:104DB000FEF7A4FCE9B23A460320FFF7D5FA01F06A
:104DC00019FCFFF79FFE002004490860761E002EA4
:104DD000EBD1002002490870BDE8F0816802002094
:104DE0007402002070B504460D46012C04D0022C3C
:104DF0001BD0032C4BD131E03C4801782A460120DE
:104E0000FFF7B2FA3A4801782A460220FFF7ACFAD7
:104E1000384801782A460320FFF7A6FA3648017879
:104E20002A460420FFF7A0FA31E0344801782A46E8
:104E30000120FFF799FA324801782A460220FFF74D
:104E400093FA304801782A460320FFF78DFA2E485E
:104E500001782A460420FFF787FA18E02B480178EA
:104E60002A460120FFF780FA294801782A460220C5
:104E7000FFF77AFA274801782A460320FFF774FAE9
:104E8000254801782A460420FFF76EFA00BF00BFCC
:104E900022480068012807D121480068401E2049A7
:104EA000086000201F4908601D480068002806DAD5
:104EB00010211D48FDF704FD08B9FCF757F9102132
:104EC0001948FDF7FDFC012801D116490860154875
:104ED0000068012806D10020104908604FF4967040
:104EE0000F49086000201149087070BD00030020C0
:104EF00004030020F0020020F40200200803002038
:104F00000C030020100300201403002018030020CD
:104F10001C0300202003002024030020280300207D
:104F20002C03002030030020000C014074020020FC
:104F300010B54248006828B1414801210268532059
:104F4000FFF72CFF01246DE000203E490880611E20
:104F5000C80010E03C4951F820100A2291FBF2F100
:104F6000C900302291FBF2F1364A1288114409B28D
:104F7000344A1180401CB0EBC40FEBDB012C08D18C
:104F80003048B0F90000032190FBF1F000B22D4948
:104F900008802C48B0F90000082802DD08202949C3
:104FA0000880284A1178E0B2284AFFF7BDF9621E4E
:104FB000274B995CE0B24FF4BE42FFF793FD601EB1
:104FC0002349085C1F49B1F90010884210DC1D48D4
:104FD000B0F90000801C082802DD0620194908806D
:104FE00018480078801CC1B2601E194A115417E09D
:104FF000601E1749085C022812DB1648006814215D
:1050000090FBF1F201FB120050B9601E1049085CE0
:10501000401EC1B2601E0E4A115400200D490860A6
:10502000601C84B2102C8FDD0A480068401C0949BE
:10503000086000200849087010BD000068020020C8
:105040007002002060020020F425002005004000CE
:10505000500200204C0200207402002010B540488D
:10506000006828B13F48022102685320FFF796FEEE
:1050700001246DE000203C490880611EC80010E05A
:105080003A4951F820100A2291FBF2F1C90030226E
:1050900091FBF2F1344A1288114409B2324A11806C
:1050A000401CB0EBC40FEBDB012C08D12E48B0F94B
:1050B0000000032190FBF1F000B22B4908802A4840
:1050C000B0F90000082802DD082027490880264A98
:1050D0001178E0B2264AFFF736F9621E254B995C3B
:1050E000E0B24FF4BE42FFF7FDFC601E2149085CB0
:1050F0001D49B1F90010884210DC1B48B0F90000CE
:10510000801C082802DD0620174908801648007810
:10511000801CC1B2601E174A115417E0601E154969
:10512000085C022812DB14480068142190FBF1F29D
:1051300001FB120050B9601E0E49085C401EC1B24E
:10514000601E0C4A115400200B490860601C84B298
:10515000102C8FDD08480068401C0749086010BD0E
:10516000680200207002002060020020F425002068
:1051700078020020500200204C02002010B5214887
:10518000006828B12048032102685320FFF706FE7B
:10519000012434E000201D490880611EC80010E091
:1051A0001B4951F820100A2291FBF2F1C90030226C
:1051B00091FBF2F1154A1288114409B2134A118089
:1051C000401CB0EBC40FEBDB012C08D10F48B0F949
:1051D0000000032190FBF1F000B20C4908800B485D
:1051E000B0F90000082802DD082008490880074AB5
:1051F0001178E0B2074AFFF7A6F8601C84B2102CC1
:10520000C8DD10BD6802002070020020600200208E
:10521000F42500207802002070B52348006828B1EA
:105220002248042102685320FFF7B8FD012437E02B
:1052300000201F490880611EC80010E01D4951F878
:1052400020100A2291FBF2F1C900302291FBF2F109
:10525000174A1288114409B2154A1180401CB0EB5C
:10526000C40FEBDB012C08D11148B0F90000032179
:1052700090FBF1F000B20E4908800D48B0F9000033
:10528000082802DD08200A490880631E0A4D55F8E7
:105290002320074B1978E0B2FFF746F8601C84B270
:1052A000102CC5DD70BD00006802002070020020D7
:1052B00060020020F42500209802002070B54248CA
:1052C000006828B14148052102685320FFF766FDB8
:1052D000012470E000203E490880611EC80010E0F3
:1052E0003C4951F820100A2291FBF2F1C90030220A
:1052F00091FBF2F1364A1288114409B2344A118006
:10530000401CB0EBC40FEBDB012C08D13048B0F9E6
:105310000000032190FBF1F000B22D4908802C48D9
:10532000B0F90000082802DD082029490880631E22
:10533000294D55F82320264B1978E0B2FEF7F4FFEB
:10534000631E55F82320254DE95CE0B2FFF7CAFB48
:10535000601E2946085C1E49B1F90010884210DC25
:105360001B48B0F90000801C082802DD06201849FF
:10537000088017480078801CC1B2601E174A11547B
:1053800017E0601E1549085C022812DB144800680B
:10539000142190FBF1F201FB120050B9601E0F497D
:1053A000085C401EC1B2601E0C4A115400200C491A
:1053B0000860601C84B2102C8CDD09480068401C19
:1053C0000749086070BD00006802002070020020DC
:1053D00060020020F42500209802002050020020E6
:1053E0004C02002070B55248006828B1514806218F
:1053F00002685320FFF7D2FC01248FE000204E49C1
:105400000880611E080110E04C4951F820100A2262
:1054100091FBF2F1C900302291FBF2F1464A128869
:10542000114409B2444A1180401CB0EB041FEBDB6D
:105430004149B1F9000000EBD07149103E4A11809A
:10544000012C08D11046B0F90000032190FBF1F0C7
:1054500000B2114608803848B0F90000082802DD83
:10546000082035490880631E354D55F82320324BFE
:1054700019786306180EFEF757FF631E55F82320B0
:105480002D4B197863005B1ED8B2FEF74DFF631EEB
:1054900055F823202B4DE95C6306180EFFF722FB1D
:1054A000631E274D55F82320264DE95C63005B1EE3
:1054B000D8B2FFF717FB601E2946085C1E49B1F9F8
:1054C0000010884210DC1C48B0F90000801C08283D
:1054D00002DD06201849088017480078801CC1B2F8
:1054E000601E184A115417E0601E1649085C022815
:1054F00012DB15480068142190FBF1F201FB120049
:1055000050B9601E0F49085C401EC1B2601E0D4AB2
:10551000115400200C490860601C84B2082C7FF7ED
:105520006DAF09480068401C0749086070BD000065
:10553000680200207002002060020020F425002094
:1055400098020020500200204C02002070B54F4805
:10555000006828B14E48072102685320FFF71EFC5F
:10556000012471E000204B490880611EC80011E051
:10557000494951F820100A2291FBF2F1C1EBC10117
:10558000302291FBF2F1434A1288114409B2414A98
:105590001180401CB0EBC40FEADB012C08D13D4860
:1055A000B0F90000032190FBF1F000B23949088006
:1055B0003848B0F90000072802DD07203549088087
:1055C000631E364E56F82320324B1978E0B2FEF7B0
:1055D000ABFE631E56F82320314EF15CE0B2FFF7BC
:1055E00081FA601E3146085C2A49B1F900108842F0
:1055F00010DC2848B0F90000801C072802DD0520D7
:105600002449088023480078801CC1B2601E244AC7
:10561000115417E0601E2249085C022812DB214861
:105620000068142190FBF1F201FB120050B9601EDA
:105630001B49085C401EC1B2601E194A115400206B
:1056400018490860601C84B2102C8BDD164909884B
:10565000A1F5AF60002801DB014600E041420901ED
:105660004FF4C86291FBF2F5022D00DD6D00102DA4
:1056700000DD1025E9B2094A0820FFF76CFA094855
:105680000068401C0749086070BD000068020020E7
:105690007002002060020020F42500209802002003
:1056A000500200204C0200208E1D00202DE9F04FFA
:1056B00089B0A548006828B1A44808210268532091
:1056C000FFF76CFBA248006842F21071884203DDCC
:1056D0004FF0FF309F4908609D480068012802DABA
:1056E00001209C4908609A4800689A490968084462
:1056F00097490860984801684FF08040FBF768F8C8
:1057000004464FF08341FBF795F806469048006841
:10571000FBF756FA83469149FBF75AF80446FBF724
:1057200097FA074600228E4BFBF7DBF98146FBF721
:10573000A2FA0546002477E02046FBF741FA8046AE
:105740003146FBF745F807462946FAF7E9FF814657
:105750004846FBF77DFACDE9040101F03BFB00224E
:10576000804BCDE90601FBF7A3F8074600227E4BEC
:10577000FBF745F98246FBF752FA04EB44017B4AFA
:105780005054754801684FF08040FBF721F8784984
:105790000190FBF74FF883464946FAF7C1FF82466E
:1057A000FBF756FA074601F015FB00226D4BCDE9D9
:1057B0000201FBF77DF800226B4BCDE90401FBF7FA
:1057C0001EF9CDE90601FBF72AFA04EB4401674A0A
:1057D00011444870604801684FF08140FAF7F8FFC3
:1057E00063490190FBF726F883464946FAF798FF8C
:1057F0008246FBF72DFACDE9020101F0EBFA0746EC
:105800000022584BFBF754F80022574BCDE9040116
:10581000FBF7F5F8CDE90601FBF701FA04EB4401CB
:10582000524A11448870641C102C85DB012480E0EE
:10583000002050490880611EC80010E04E4951F810
:1058400020100A2291FBF2F1C900302291FBF2F103
:10585000484A1288114409B2464A1180401CB0EBF4
:10586000C40FEBDB012C08D14248B0F90000032142
:1058700090FBF1F000B23F4908803E48B0F90000CB
:10588000082802DD08203B490880601E00EB40002C
:10589000364908448178601E00EB4000334A105CB2
:1058A00041EA0021601E00EB40001044407841EACC
:1058B0000047304A1178E0B23A46FEF735FD621EE5
:1058C0002E4B995CE0B23A46FFF70CF9601E2B496B
:1058D000085C2849B1F90010884210DC2548B0F96D
:1058E0000000801C082802DD06202249088021488B
:1058F0000078801CC1B2601E204A115417E0601E5F
:105900001E49085C022812DB1D4800680A2190FB32
:10591000F1F201FB120050B9601E1849085C401EEC
:10592000C1B2601E154A1154002015490860601C60
:1059300084B2102C7FF77CAF11480068401C1049DE
:10594000086009B0BDE8F08F6802002070020020F6
:10595000D8020020DC02002030020020000090412C
:1059600000408F400000F03F00C05F40F42700205F
:105970000000404060020020F4250020500200207A
:105980004C02002070B58948032102680120FFF70E
:10599000A9F88648042102680120FFF7A3F883488C
:1059A000052102680120FFF79DF880480621026862
:1059B0000120FFF797F87D48022102680846FFF7AB
:1059C00091F87A48072102680220FFF78BF87748A0
:1059D000022102680320FFF785F87448032102685A
:1059E0000846FFF77FF87148022102680420FFF79C
:1059F00079F86E48072102680420FFF773F86B48B6
:105A0000012102680520FFF76DF86848032102684C
:105A10000520FFF767F86548042102680520FFF7B5
:105A200061F86248052102680846FFF75BF85F48A5
:105A3000062102680520FFF755F85C480721026837
:105A40000320FFF74FF85948022102680720FFF7AB
:105A500049F85648062102680720FFF743F85348E3
:105A6000022102680820FFF73DF85048052102682E
:105A70000820FFF737F84D48072102680820FFF794
:105A800031F84A48022102680920FFF72BF84748FD
:105A9000042102680920FFF725F84448072102681D
:105AA0000920FFF71FF84148032102680A20FFF789
:105AB00019F83E48072102680A20FFF713F83B480F
:105AC000032102680C20FFF70DF838480421026812
:105AD0000C20FFF707F83548052102680C20FFF776
